:400000000080002011000000C5090000C509000008B5054B1A6803F53F5302331A6000F0A7FD00F0D7FC00BFFA460040080002230000087608000323000010760800042387
:400040000000187608000523000020760500062300002070050007230000307005000823000040700500FE230000507010000A220000005150000B22000020511000FE222E
:400080000000C051FF0F0D220000000001000E220000FF0F80030F22000000148001102200000018000211220000001A80001222000000418000132200000042800014222F
:4000C00000000043000315220000004480001622000000480001172200000049800018220000004C000119220000004D2000FE220000005007001B23000078520800FE2365
:400100000000784508001D230000005180001E230000804C80001F23000000478000202300008047800021230000801980002223000080178000232300008048800024233B
:40014000000080438000252300008042800026230000804180002723000000408000FE23000080404000000000000000C000000F0B00000000000400140101000000010107
:4001800000000000000140010000000000004001000000002001400100000000200040000000000000000000000000000000000000000000000000000000000000000000FA
:4001C00000000000000000000000000000000000000000000000000000000000000000000000000000000000000000300000000000000000000000000000000000000000CF
:4002000000000000000000000000000000000000000000000000000000000000000000000000000000000000000000000000000000000000000000000000000000000000BE
:4002400000000000000000000000000000000000000080000040000000000000000000000000000000000000000000000000000000000000000000000000000000000000BE
:40028000000000000000000000000000000000000000000000000000000000000000000000000000000000000000000000000000000000000000000000000000000000003E
:4002C000000000000040800000000000000000000000000000000000000000000000000000000000000000000000000000000000000000000000000000000000000000003E
:4003000000000000000000000000000000000000000000000000000000000000000000000000000000000000000000000000000000000000000000000000000000000000BD
:4003400000000000004080000000000000000000000000000000000000000000000000000000000000000000000000000000000000000000000000000000000000000000BD
:40038000000000000000000000000000000000000000000000000000000000000000000000000000000000000000000000000000000000000000000000000000000000003D
:4003C000000000000040800000000000000000000000000000000000000000000000000000000000000000000000000000000000000000000000000000000000000000003D
:4004000000000000000000000000000000000000000000000000000000000000000000000000000000000000000000000000000000000000000000000000000000000000BC
:4004400000000000000000000000000000408000000000000000000000000000000000000000000000000000000000000000000000000000000000000000000000000000BC
:4004800000000000000000000000000000500000000000000000000000000000000000000000000000000000000000000000000000000000000000000000000000000000EC
:4004C00000000000000000000000000000000000000000000000000000000000000000000000000000000000000000000000000000000000000000000000000000000000FC
:40050000000000000000000000000000000A0000000000000000000000000000000000000000000000000000000000000000000000000000000000000000000000000000B1
:40054000000000000000000000000000000000000000000000000000000000000000000000000000000000000000000000000000000000000000000000000000000000007B
:40058000000000000000000000000000000A000000000000000000000000000000000000000000000000000000000000000000000000000000000000000000000000000031
:4005C0000000000000000000000000000000000000000000000000000000000000000000000C000000000000000000000000000000000000000000000000000000000000EF
:400600000000000000000000000000000000000000000000000000000000000000000000000000000000000800000000000040000000000000000000000000000000000072
:40064000000000000000000000000000000000000000000000000000000000000000000000000000000000000000000000000000000000000000000000000000000000007A
:40068000000000000000000000000000000000000000000000000000000000000000000000000000000000000000000000000000000000000000000000000000000000003A
:4006C00000000000000000000000000800004000000000000000000000000000000000000000000000000000000000000000000000000000000000000000000000000000B2
:40070000000000000000000000000000000000000000000000000000000000000000000A00000000000000000000000000020000000000400000000010B5054C237833B9D0
:40074000044B13B10448AFF300800123237010BD4881FF1F00000000F0280000084B10B51BB108490848AFF300800848036803B910BD074B002BFBD0BDE81040184700BF2F
:40078000000000004C81FF1FF0280000C880FF1F0000000008B500F0A1FCFEE770B572B6694A102113784FF49C7043F004031370664A00231360664A03241170A2F5BE6284
:4007C00001211170537202F5FE621080614801704470614CA0F5FF70A0F8004247F60804A0F8024203805D4B4FF480401880A3F2DD53092018700C2018741A2083F8200063
:400800001C2083F83000BFF35F8F153B1970BFF35F8F118889B20029FBD15148514A524C50F8041F89B222F8081BA242F8D1BFF35F8F01221A70BFF35F8F4C4A1378DC079C
:40084000FCD44B4A1378D807FCD44A4A1378D907FCD4494A1378DB07FCD4484B1C7814F00104FBD1464A474E1378192543F002031370137C43F002031374434BA2F57E4262
:4008800018685968133A03C2198940481180194651F80A2F02604A683D4942600A78D3F8120042F008020A703A4A3B4B61211170062283F800221860522203F580731A70C5
:4008C000364B374A1B78DBB21370364B4FF4E2621A8041F2512223F8022C33784FF4F07003F0010343EA440400F0D6FE013D04F0030428D0032CF0D12B4A4FF480731380E5
:400900002A4907231370482000230B70887013705371274B02221A70C12283F8FF27254B254A1B78254CDBB203F007011B0911705370234B44221A70A3F5A653163B0FCBC1
:4009400007C4238070BDFEE7E84600406881FF1F00760040027800402C00000006760040F02800000C780040447900401870004028700040387000404870004058700040C9
:40098000035001402542004064010000125100402243004000480040004100400F010049A146004022420040044000400640004001400040CF0100496E580040B043004045
:4009C0007658004008B501F04FFF03680C2B00D1FEE7FEE780B51148114B0025C0B1A3F1100192C922460439161BB74204D051F8046F42F8046BF7E7114653F8046C8C1A92
:400A0000A64202D041F8045BF9E701381033E5E701F030FFFFF7BEFEFEE700BF010000002C2B0000104A114B10B41A60104A114C1368114843F4007313600023032B98BF2A
:400A400054F823204FEA830188BF0C4A0133302B4250F3D10A4B1A780A4B1A700A4B064A10BC1A60FFF79ABE0004FA050CED00E014ED00E0000000000080FF1FC509000080
:400A8000BC760040C080FF1F08ED00E000470023014422B1013A885C0344DBB2F9E71846704701380B284FD8DFE800F0060C12181E24302A363C42480902C1F57F3101F5A2
:400AC000707147E00902C1F57F3101F2C13144E00902C1F57F3101F2C53136E00902C1F57F3101F2C93138E00902C1F57F3101F574712FE00902C1F57F3101F2D13129E0C4
:400B00000902C1F57F3101F2D6311EE00902C1F57F3101F2D23118E00902C1F57F3101F5757112E00902C1F57F3101F5767114E00902C1F57F3101F577710BE00902C1F571
:400B40007F3101F5787108E000210B78487843EA002070470878C0B270470B784A788878000440EA02201843CB7840EA0360704710B50B4A137803F0C003802B0ED100246D
:400B8000147021460220FFF78CFF38B121460220FFF787FFBDE81040FFF778BF10BD00BFFA460040F8B5014606460320FFF779FF314605460420FFF774FF013500EB052520
:400BC00031460320FFF76DFF0024274601300002854209D910F8013B5A1ED2B2FD2A1C4498BF0127E4B2F3E731460320FFF759FF114B01309D424FEA00204FEAD00014BF4D
:400C0000ED084FF40045A84206D200F190431B7801301C44E4B2F6E731460120FFF741FF6442E4B2844204D1002F0CBF06200020F8BD0620F8BD00BFC0FF030080B5ADF54D
:400C40001C7D00F01DFB10B1002000F0D5FB00F077FA62B600252F46DFF87C84FF236A464FF4967106A800F09BFA0028F6D1BDF80020062A57D99DF81830012B53D1BDF8F3
:400C80001A40E31D93424BD8B3F5967F48D806AB23449B79172B46D1231D9BB20DF117022BB1D15C013B084480B29BB2F8E706AB1A1951791379404243EA012380B28342E9
:400CC00033D00824002101238DF818300A1D0B0A8DF81B30ADF802108DF819408DF81A1092B200230DF117002AB1845C013A23449BB292B2F8E75B4207AA9BB253540DF1DA
:400D00001D021B0A53540DF11E0317225A54073196230DF1020289B206A800F022FA9DE70324CFE7C7BB0424CCE79DF819309DF81C60A3F13102142A00F21B8101A151F8AF
:400D400022F000BF250D00001F0E0000730F0000650E0000DD0E0000730F0000E70E0000070F0000650E0000270F00005B0F0000730F0000730F0000730F0000730F0000BB
:400D8000730F0000730F0000730F0000730F0000730F0000B10D0000002CC4D12046FFF701FFB0FA80F040098DF81C0039468AE7002FB8D0032C03D040F223139C42B2D158
:400DC000032CBDF81D9005D0E21E0DF11F0151A801F076FDA6F140033F2B07D809F1806303F500631A011021802308E0032E00F2E78009EB06234FF480711A020B469945BA
:400E000080F0E080002051AB145C10F803E0A64540F0ED80013084B2A142F5D8D4E0002F81D0012C7FF47FAF032E3FF67CAFA64B1B681B68C3F30742964202D1C3F30723B8
:400E400003E08CBF00234FF480738DF81C301B0A8DF81D300024FF238DF81E308DF81F40042130E7342B12D1002F3FF45CAF032C7FF459AFA6F140033F2B8CBF4FF49075BA
:400E800010252A46002151A801F025FD05E0002F3FF449AF022C7FF646AF51AB033C224658190DF11F0101F00BFDA6F140032C443F2BA4B204D800F077FA8023102203E05F
:400EC0004FF480734FF49072944240F09280BDF81D509D42C0F09C80012773E0002F3FF422AF0025BAE6002F3FF41DAF6619B6F5967F3FF715AF51AB5819224607A901F042
:400F0000DFFCB5B281E0002C7FF40DAF6F4A03AB92E8030007AA83E8030082E80300254601270821CFE6002F3FF4FDAE032C7FF4FAAEA6F140033F2BBDF81DA008D800F0F5
:400F400033FABAF17F0F4FEA0A1140F2858039E0BAF1FF0F40F28B8034E00020FFF722FE10B9802388F8003000F0F6F800F046FAD9E6574A1268002A40D0002F41D0ADF804
:400F80000640002607AC03A98DF80430029403960496059401A89047BDF81010B1F5937F02D3059BA34205D0059B03B929B99DF80C4088E60E24314685E60E24194682E675
:400FC00009247FE60A247DE6032E1ED8A9421CD206F510360B4409EB062903F12002C3EB491919F8030013F8011B88420BD0022468E6002501270324294664E605241146F4
:4010000061E605245EE69A42EBD1002421465AE63F2E0ED82C4A05EB062312689BB21268C2F30F2112F0FF0F1CBF013189B28B420ED32346294651AA304600F04FF90028E2
:401040000CBF00240A24002500F0FEF90127D3E7002501270A24CFE710221E48FFF717FD044664428DF81C40012100242BE64FEA062909EB0A014FF4807209020020FFF7AD
:4010800006FD3F2E0446ECD809F11079D1444FEA4919002313F8090001330444202BE4B2F8D1032EDDD1BAF1FF0FDAD100210520FFF7F7FC201AC4B200210620FFF7F1FCD6
:4010C000201AC4B2CDE700BFCC80FF1F902900006C81FF1F00800040FA46004038B50020FFF760FD144C0021236800281A68084614BF06250025FFF7CAFC63681B78181A8C
:4011000000F0FF00834202D123681B6813B9002000F072F9094B1A7802F0C002402A1A4600D01DB100231370FFF788FD80221A70BDE8384000F062B9CC80FF1FFA46004072
:4011400008B562B60221002000F090FB014B01221A7008BD7081FF1F00F0C6BB012000F085BC70B503EB83030E4615460146402202205C0000F03CFC022000F01DFC30B9A1
:401180002CB10120013C00F041F9A4B2F4E7022000F012FC10B12E80002070BD102070BD2DE9F84303EB83035C00224B17461A78804689461E46A2B1254600F0EBFB30B96D
:4011C0002DB10120013D00F021F9ADB2F5E700F0E1FBA0B100F0E4FBFFF7C0FF002333700DE000F0DDFB50B100F0D4FB38B1FFF7B5FF04E054B100F009F9013CA4B201206F
:4012000000F0DAFB01284FF00100F3D100F0D4FB01280AD14A46402A28BF4022414600F039FC38800020BDE8F88300233B801020BDE8F8837081FF1F38B500F03FF900F0D0
:40124000DDF9C0B900F014FA0728044610D10B4D2A780A4B910703D4012000F0EDF8F7E71A78920704D51B789B0814BF0724002400F0E4F900E00424204638BD2247004000
:4012800070B5FFF7D9FF044610BB00F017F900F0B5F9E0B9012000F097F907280AD10D4D02210D4800F01CF902280A4E05D02B789B07F5D54FF0FF3406E033789A0703D48C
:4012C000012000F0B9F8F8E700F0B8F900E00424204670BD224700407F81FF1F41282DE9F04105460E46174698460AD8441F3A2C8CBF002401243F2804D8B1F5807F30D891
:4013000006E00124812E28BF0124B8F1100F28D13FB334BB00F072F928BB43463A463146284600F0FBF8072834D1DFF8748098F800201B4B12F0020F1F4603D1012000F0C4
:401340007BF8F4E71A78900706D51B789B080CD002E01A78920719D44FF0FF3400F06EF91AE0012418E0042416E00E4A314653782846127800F008F907280BD13A78084B7E
:401380009107E6D4012000F057F8F7E71B789B08E4D0E1E70446E1E72046BDE8F08100BF224700407F81FF1F08B500F07DF90F4A137843F008031370137C43F008031374BB
:4013C0000B4BC8221A700B4A137843F010031370137C43F01003137402F5557213789B06FCD5BDE8084000F063B900BFA043004001470040AC43004001BE7047024A137884
:4014000043F0010313707047F646004038B50446084DB4F5004F05D9286800F03DF9A4F50044F6E7034B58686043BDE8384000F033B900BFD480FF1F024B1B7A584300F0A5
:401440002BB900BFD480FF1F08B500F02DF900BF00BF00BF00BF00BF00BF00BF00BF00BF00BF00BF00BF00BF00BF00BF00BF064A13889BB243F0040313801388BFF36F8F44
:40148000BDE8084000F014B900480040054A00F01F00126800F1100352F8230042F82310704700BF08ED00E000F01F0000F16040490100F56440C9B20170704708B500F026
:4014C000F3F8064A137843F008031370137C43F008031374BDE8084000F0EAB8A04300402DE9F0410E464B1E0A4FDFF82C80451EC418A5420BD03B78DB0703D40120FFF70B
:401500009BFFF8E798F8003005F8013FF1E73046BDE8F081224700402047004070B5184D2C78A60727D5174CB6262670D5262670022626702D78AD071FD416462070B51A7F
:40154000ADB2AB4203D916F8015B2570F7E7B3F5807F01D0072070BD3F28FBD800F5103001EB0021490100235A5C0133D2B2202B2270F9D1EEE7042070BD092070BD00BF61
:40158000224700402047004070B50D4D2C78A60712D50C4CB6262670D8262670052626702D78AD070AD42070080AC9B22070217022702370072070BD042070BD092070BD70
:4015C00022470040204700400A4A137899070CD5094BB6211970E12119700E2119701278920704D4187007207047042070470920704700BF224700402047004038B500F03C
:4016000053F80C4A147874B901250B4915700B682B400AD00B6823F001030B6000BF00BF00BF556002E0042400E01C4600F040F8204638BD7481FF1F0400084010B500F0CF
:4016400033F8094B00215A681970012A08D1074C226842F00102226000BF00BF00BF5960BDE8104000F024B87481FF1F04000840074B1B789B0708D5064BB6221A70E022B8
:401680001A700D221A70072070470420704700BF22470040204700400230800803D000BF01380046FCD17047EFF3108072B6704780F31088704700BFF8B5FFF7F5FF384AE5
:4016C00001251378022743F001031370137C354C43F001031374344B02F5E3521D700B3203F8947C1378064603F07F0313700020FFF7A2FE23782D4A03F0F9032370137864
:40170000284603F0DF03137023782B432370FFF793FE2820FFF790FE254B38461A7802F07F021A701A7802F0BF021A7023783B432370FFF781FE2378304643F004032370A9
:401740001C4B00241C705C70FFF7B2FF07211720FFF7AAFE18491720FFF798FE07211820FFF7A2FE15491820FFF790FE20460721FFF79AFE12492046FFF788FE28460721BF
:40178000FFF792FE0F492846FFF780FE07210C20FFF78AFEBDE8F8400B490C20FFF776BEA5430040944300409D60004012600040F851004084600040491F0000AD1D000003
:4017C000ED1E0000191F00004121000008B51A4B01221A70194B1870194800230370194803701948037019480370194803701948037019480370194B4FF4000018604FF03C
:40180000807018601A6002221A60154B19B91A7802F0FE0202E01A7842F001021A70114B03221A70802203F8202C0120FFF734FF0D4B04221A7008BD1482FF1F9481FF1F4D
:401840009A81FF1F9881FF1F9981FF1F9581FF1F8481FF1F9781FF1F0C82FF1F00E100E009600040286000401260004070B5074C054623780E461BB9FFF71EFF0123237053
:4018800031462846BDE87040FFF7A0BF7C81FF1F0C4B01221A700C4A002313700B4A13700B4A13700B4A13700B4A13700B4A13700B4A13700B4B03221A70802203F8202C80
:4018C000704700BF1482FF1F9A81FF1F9881FF1F9981FF1F9581FF1F8481FF1F9781FF1F0C82FF1F2860004008B5FFF7DDFE1F4A137803F07F031370937A03F0FB03937298
:40190000A2F5E352033A137803F0FE031370137C03F0FE031374164B1A7842F080021A701A7842F040021A70FFF7C2FE114B4FF400021A604FF080721A6001221A60022294
:401940001A6000F063FF0C4B4FF480521A600B4A002313700A4A13700A4A13700A4A13700A4A13700A4A137008BD00BF08600040F851004080E100E080E200E09881FF1F18
:401980009981FF1F9581FF1F8481FF1F9781FF1F7C81FF1F014B1878704700BF9981FF1F044B1A7802F0FF001AB118780022C0B21A7070479881FF1F024A0C2303FB0020EB
:4019C00040787047A081FF1F431E072B0CD8074A064B00010344805C5B7800F00F0043EA0020023880B2704700207047FC5F0040431E072BF0B531D8194B0C2505FB00353D
:401A0000EC88184FA4B2C4F50074A2424FF00C0404FB003488BFEA88E67884BFC2F5007292B2104C46EA12260501EE552C44D6B2667041B90C2202FB003000234370437959
:401A4000DBB2A370F0BD0E46074F2F44751AADB2AA42EFD916F8015B3D72F7E7F0BD00BFA081FF1FFC5F004070600040431E072B0AD8064A0C2303FB002300225A705A7939
:401A8000034BD2B200011A54704700BFA081FF1FFE5F004038B505461446D1B1431E072B19D8FFF791FFA04203D22846FFF78CFF04460A4609482B011844531A9BB29C42C4
:401AC00003D9037A02F8013BF7E72846FFF7CEFF02E00C4600E00024204638BD7060004030B51A4A1A491B4D0878138803449BB21380194A00231488D8B2A4B27CB1082BED
:401B00000CD050680078C0B2E85450680133013050601088013880B21080ECE718460B780E4C082B0E4A00D040B10E4D2B7883F080032B700F232370022301E0022323701F
:401B40001370094B1870087030BD00BF1082FF1F0C82FF1F006000408881FF1F8581FF1F9A81FF1F9681FF1F0D82FF1F074B02221A70074B80221A70064B0F221A70064AA6
:401B800000231370054A0120137070479A81FF1F9681FF1F8581FF1F0C82FF1F0D82FF1F30B5164B16491B780A8803F00F03023BDBB21A4492B20A80124C134A00201188B1
:401BC00089B279B173B15568215C013BC9B229705168DBB20131516011880130013989B21180ECE7094A1370094A137883F080031370084B0B221A7030BD00BF296000405A
:401C00001082FF1F006000408881FF1F0D82FF1F9681FF1F8581FF1F064A06231370064A01201370054B80221A70054B00221A70704700BF9A81FF1F8581FF1F9681FF1FB7
:401C40000D82FF1F054B9A683AB19A68044910709A680988518000229A6070478881FF1F1082FF1F08B5124B1A78D2B21A701B78DBB21A0602D50F4A137008BD0220FFF713
:401C8000E1FF0D4B1B7803F06003202B05D0402B06D043B900F07EFC04E000F0BFFD01E000F0AAFD10B9034B03221A7008BD00BF286000408581FF1F0060004008B5084A4F
:401CC000084B0120197813880B449BB21380064B00221A70FFF7B6FF044B03221A7008BD1082FF1F0C82FF1F9A81FF1F8581FF1F08B50C4B1B78DBB2042B07D0062B09D0AD
:401D0000022B0DD1BDE80840FFF7D8BFBDE80840FFF746BF0320FFF795FF034B03221A7008BD00BF9A81FF1F8581FF1F08B5054B002201201A70FFF785FF034B03221A705A
:401D400008BD00BF9A81FF1F8581FF1F08B50A4B1A7832B11A78094942F080020A7000221A70074B002201201A70FFF76BFF054B03221A7008BD00BF8481FF1F0860004070
:401D80009A81FF1F8581FF1F074B1B78DBB2042B05D0062B05D0022B05D1FFF7A1BEFFF7C5BFFFF7D3BF70479A81FF1F38B51D4C2378DBB2DD0634D518060AD503F00F0394
:401DC000012B2ED1FFF74EFF174B1B78190609D538BD5A0602D5FFF7D7FF03E09D0620D5FFF786FF23781B061BD4104B1A78104B1B7813430F4A13701278934211D10A4A48
:401E00000849154613782078DBB2000605D41378DBB20B700B7803F00F0328788342F1D138BD38BD286000408581FF1F9681FF1F0D82FF1F29600040054A00231380054A50
:401E4000916819B191680B7092685380704700BF1082FF1F8881FF1F0E4808B503889BB213B9FFF783FE13E00B4B02221A700B4B00221A70FFF7E0FF094AD17993790288E2
:401E800043EA012392B2934238BF0380FFF728FE012008BD8881FF1F9A81FF1F9681FF1F0060004008B50C4B04221A700B4B80221A70FFF7C1FF0A4A0120D179937943EA13
:401EC000012308490A8892B2934238BF0B80064B0B221A7008BD00BF9A81FF1F9681FF1F006000408881FF1F8581FF1F084B01221A700F3B9B7C074B1A7B02F00302012AF1
:401F00001EBFDA7B82F08002DA7301225A7370470B600040A081FF1F094B02221A700F3B93F82230074B1A7E02F00302012A1EBFDA7E82F08002DA7601225A76704700BF86
:401F40000B600040A081FF1FFFF7A2BC08B50B4B18780138C0B200F035F9094B09491B79DBB200EBC3004269CB5C02EBC3035B68054A596A0B781380516008BD9981FF1F24
:401F8000006000408681FF1F8881FF1F08B50D4B18780138C0B200F015F90B4B0B491B79DBB200EBC3004269CB5C02EBC3035B68DB69597813F8022B42EA012204490A80B3
:401FC0004B6008BD9981FF1F006000408681FF1F8881FF1F38B5174C00232380164B18780138C0B200F0EEF8144AD3781179DBB2F1B913490978CDB2591E022918D84169C3
:4020000003F1005301EBC5014968013B927801EBC30011F83330D2B2934209D30C2353434168CA185068CB5A606023809368A36038BD00BF8881FF1F9981FF1F006000401F
:402040008681FF1F10B5394B1A791978D2B211F0800F194632D05B78013B052B63D8DFE803F0101826626203CB78212B02D1FFF76DFF08E02D4BDB78222B54D1FFF786FFAC
:4020800001E0FFF7A7FF2A4B1B889BB2002B4AD009E0002A47D18B78002B44D1244B01221A80244A5A60BDE81040FFF7D5BE002A39D11F4B01221A801F4AF3E75978C9B2CF
:4020C0000A290DD00B2922D009292CD1FFF782FF174B1B889BB233B3BDE81040FFF7E2BE0ABB9A7802F0FF01EAB9DB78114ADBB21370124B14781878844201D219700EE08E
:40210000197801290BD91278D2B21A7007E052B99A78012A07D89B78074ADBB21370BDE81040FFF779BD002010BD00BF006000408881FF1F1282FF1F1482FF1F1382FF1F39
:4021400000F064BB2DE9F0411A4D01222E460C2080274FF0080E184B00FB025C14012344187016499CF805802144B8F1000F07D09CF8044024064CBF887081F802E000E077
:402180008F7000FB0261CC880132E4B29C71CC88092AC4F30724DC71CC88E4B21C71C988C1F307215971D6D1054BFF221A70BDE8F08100BFA081FF1F70600040FC5F004013
:4021C0000A600040064B074A1B7802EBC30253681A7C824286BF03EBC0035869002070479481FF1F982900002DE9F84F424B1A78002A7ED01878414D0138C0B2FFF7E2FF23
:40220000A8463F4AC3681478007ADFF800C1E4B203EBC0000C2600274FF0010E834268D01A78A24263D11CF80420597891425ED19A7893F8039002F07F0206FB02FA05EB31
:402240000A01CF7093F802B009F0030981F804B093F803B005F80AB0B3F804A0A1F808A093F902A0BAF1000F0BDAB9F1010F0CBF4FF007094FF00D0981F8059081F801E0C2
:4022800009E0B9F1010F0CBF4FF005094FF0090981F805904F704FEA02191A4906FB0282494481F802E0B2F808A0CAF3072A81F800A0B2F808A05FFA8AFA81F801A0B2F8D5
:4022C00006A011495FFA8AFA494481F806A0B2F80690C9F3072981F80790B2F806905FFA89F981F80490D288C2F307224A71083394E7BDE8F88F00BF9981FF1FA081FF1FE6
:402300009581FF1FFC5F0040706000408681FF1F08B5064B18780138C0B2FFF753FF20B143681B7900EBC300406908BD9981FF1F00212DE9F84F0B464C4E0C2707FB01F510
:4023400001317219092973554FF000049370474DD3701381937253705371EFD118B1444B1C70444B1C70444B1A78002A7BD0187801240138C0B2FFF725FFA0464368DFF832
:40238000F0E0DB790C2713F0400F3C4B4FF0000C1A7814BF42F0010202F0FE021A70027AD20007FB0451C36803EB02094B4531D093F802A00AF07F06A64229D10E89B3F862
:4023C00004B0B6B25E4538BFA1F808B01E7893F801B01EF80660B3451AD181F804A0DE780E7093F902A0DE78BAF1000F06F0030607DA012E0CBF07260D264E7181F8018083
:4024000006E0012E0CBF052609264E7181F801C00833CBE70134092CC3D1C1680A328B1C0A440C200833934209D013F8081C13F80A4C01F07F0100FB01518C72F2E7FFF7F4
:4024400067FF0F4B0122186000230C2000FB0251CB80098901320B44092A9BB2F6D1BDE8F84FFFF76FBEBDE8F88F00BFA081FF1F8681FF1F0E82FF1F9981FF1F9781FF1F44
:402480009C81FF1F114B1B7903F07F035A1E072A19D80F490C2202FB031291781B0141F0010191700021D170517841F002015170127912F0800F074A1A4414BF8D238923D7
:4024C0009370FFF7A9BB0020704700BF00600040A081FF1FFC5F004030B4194B1A7902F07F02531E072B27D8164B0C2404FB02339978154D01F0FE0199700021D970294675
:402500001201505D114400F07F0050555A7802F0FD025A701A795B78120605D5012B01D18C7006E00D2303E0012B0CBF082309238B7030BCFFF770BB002030BC704700BFC2
:4025400000600040A081FF1FFC5F004010B50D4B0D4C21791878C9B20138C0B2FFF732FE43681B798B4201D2012909D8074A0848535CDBB24354A3780120DBB2535410BD5A
:40258000002010BD9981FF1F006000408681FF1F0E82FF1F38B5874A874913780020DBB20880180640F1878050780A2800F2FF80DFE810F05600FD00FD00FD00FD00FD0066
:4025C0000B00FD007700FD007B00D3787948012B09D17A4B1A787A4B03EBC2035B685B684B60122310E0C378022B12D18078FFF7E9FD002800F0DB8043684B604B68DA78C0
:402600004B689B7843EA02230B80BDE83840FFF723BCC378032B1FD16A4B00228478D5B2A5420BD3634A92787AB1624A664C9078247C664A844208BF134606E01C78013262
:40264000002CEFD01C782344E8E71A78002A00F0AE801A780A8018E0BDE8384000F0DEB813F0030313D0022B40F0A1800B80514B0C201B7903F07F02554B00FB02339A786D
:40268000544BD2B21A7000225A704B60BDE702220A80514A10784F4AC0B2107053704A60B3E701230B804D4BEFE701230B8013794B4A1344E9E7517801390A2977D8DFE86F
:4026C00001F037764F76067676760A7620009378444ADBB25AE0937803F0FF0153B93F4B1A7891425FD019703F4B01201870FFF71FFE58E0481EC0B2FFF764FD0028EED1CA
:4027000055E0FFF723FF002851D02A4A374913791279DBB2D2B20A70354A3149D25CCB5C9A4240D0304B01221A70FFF75DFD3AE003F00303012B2BD009D3022B37D11D4B08
:402740009B78002B33D1BDE83840FFF7C5BE194B9B78012B2BD1204A137803F0FD0315E003F00303012B13D008D3022B1FD1114B9B78E3B9BDE83840FFF784BE0D4B9B783A
:40278000012B14D1144A137843F0020313700AE0084B1A795AB998781B791649DBB2CA5C22EA0002CA54BDE83840FFF735BA002038BD00BF006000408881FF1F9481FF1FCF
:4027C00098290000662A0000E22A00005C2A0000A081FF1F7D81FF1F9781FF1F9981FF1F8681FF1F8481FF1F9881FF1F9581FF1F0E82FF1F9B81FF1F034B00201A7812067A
:4028000048BF5B78704700BF00600040024B1878C0F38010704700BF8F4500400F4A137803F00303012B0AD0022B0DD113790C2103F07F020A4B01FB02339B7A00E01379DC
:40284000DBB2012B08D800E00023064A1268D35C032B01D1FFF7F6BB0020704700600040A081FF1F9C81FF1F014B1868704700BF4481FF1F0E4B70B51E460E4C0025E41AA7
:40288000A410A54204D056F8253098470135F8E700F032F9084B094C1E46E41AA4100025A54204D056F8253098470135F8E770BD042B0000042B0000042B00000C2B0000D1
:4028C00010B5431E0A44914204D011F8014B03F8014FF8E710BD03460244934202D003F8011BFAE770470000002C0000D700000000000000970100008F01000087010000D9
:402900007F0100007A0100007A0100007A0100007A0100006881FF1F6881FF1F6881FF1F6881FF1F6881FF1F6881FF1F6881FF1F6881FF1F6881FF1F6881FF1F6881FF1FDE
:402940006881FF1F6881FF1F6881FF1F6881FF1F6881FF1F6881FF1F2F070000270700001F0700009F0600001F0600009F0500001F0500009F0400001F0400009F030000A9
:402980001F0300009F0200001F0200009F0100006910162E003C010101000000A029000001000000E22A0000000000000000000001000000B829000001000000B92A0000FB
:4029C00002000000DA29000001000000EC29000000000000D8290000030000000103400003000000820340000300000001000000F429000000000000282A00000000000039
:402A00001C2A0000000000000000000001000000342A000001000000CB2A0000410000005B82FF1F9C82FF1F410000001A82FF1F1682FF1F240005010900A1000900A10054
:402A40000900150025FF7508954091020900150025FF750895408102C0C000000A033000300030003100040309042C034300790070007200650073007300200053006500C6
:402A80006D00690063006F006E0064007500630074006F0072002203500053006F0043003300200042006F006F0074006C006F00610064006500720000090229000101025F
:402AC000800109040000020300000209211101000122240007050103400001070582034000011201000200000008B4041DB701300102800143000000F8B500BFF8BC08BC16
:402B00009E4670475D070000250A0000F8B500BFF8BC08BC9E46704739070000302B0000C880FF1F80000000580100000000000000000000E8280000EC2800000000C05DCD
:402B400080BB000030000000006CDC020000000000000000000000000000000000000000000000000000000000000000F42A00000000000000000000000000000000000082
:402B80000000000000000000000000000000000000000000000000000000000000000000000000000000000000000000E480FF1F0000000000000000000000000000000093
:402BC00000000000000000000000000000000000000000000000000000000000000000000000000000000000000000000000000000000000000000000000000000000000D5
:402C000000800020112C0000513E0000513E000008B501F03BF9000010B5054C237833B9044B13B10448AFF300800123237010BD8881FF1F00000000A8790000084B10B5B5
:402C40001BB108490848AFF300800848036803B910BD074B002BFBD0BDE81040184700BF000000008C81FF1FA8790000C880FF1F00000000074B1A780132D2B2022A88BF66
:402C800000221A701A785B789A4202BF014B01229A707047A481FF1F80B562B602F0A6FF514C02F05BFF02F025FF03F041F8002003F04CF8002603F0E5FA03F097F901F021
:402CC000B9F903F033FC03F027FD03F053FB03F00BFB01F087FA02F0EBFC02F0D3FE03F0E1FC41F6FF734FF48042012102202670667001F0ADF9E07002F0DAFD207102F040
:402D0000D7FD607102F0D4FD254604F10807A07104F103091FFA87F80136032E14BF3246002219F8010F2A44062312794FF4FA6102F0D8FD424646F68C0199F8000002F0C1
:402D4000E3FD08F5FA68032E274C1FFA88F8E3D12179E07802F080FD0121E07802F02AFD224801F091F9022000F0ACFC00F03AFD4FF47A711E4800F0EBF9DFF880801D4EBF
:402D800095F80290B9F1000F0CD04FF0000984F8029000F0AFFA4946174800F071FD00F09BFDEDE7637822789A4211D04FF4FA6000FB03704FF47A7100F0A4FA63780133C0
:402DC000DBB2022B01D86370DAE784F80190D7E700F044FB10B100F04BFBD1E7D8F80010306800F087FDCBE7A481FF1F752C000040420F00D480FF1FAC790000D080FF1FEB
:402E0000014B01229A707047A481FF1F42F204034343114A70B50224D45441F20204D11800231D4644434B700126E118013302EB4101B3F5805F8E70CD70F6D142F2040260
:402E4000054B02FB003042F202030322C25442F20303FF22C25470BD1C99FF1F08B50020FFF7D4FF0120FFF7D1FF40F6FF710E4B0022012083F82E2DA3F8201DA3F8222D89
:402E800083F8240DA3F8261DA3F8282D83F82A2D83F82B2DA3F82C2DA3F8302DC3F8342DA3F8382D08BD00BF04CCFF1FF0B5104B002293F82E4DB3F82C7D1D4641F2020362
:402EC00016465C43DFF82CE0BB198E429BB20BDAB3F5805F08D230F8162023440EEB43035A8001360122EFE70AB1A5F82C3DF0BD04CCFF1F1C99FF1F024B1A88824288BF86
:402F000018807047CC80FF1F482808B512D006D842280BD0442816D100F05AFB0FE056280BD05A280FD103F005FC0FE0084B0021988905E000F0D2FA08E000F045FC002111
:402F400000F07EFC02E04FF0FF3008BD002008BD78DAFF1F0E4B5B89834217D30D4B93F8242D1AB1002283F8242D704741F2020293F82E3D02FB03004FF6FF72064B03EBCB
:402F80004000438893421CBF01334380704700BF78DAFF1F04CCFF1F1C99FF1F0C4910B5B1F8202D0446824204D2B1F8223D9B1A034408E0074BB1F8220D1B89834201D272
:402FC000FFF7C8FF0023A1F8223DA1F8204D10BD04CCFF1F78DAFF1F204910B591F82A2D0446CAB9B1F8200DA04212D2B1F8223D1B1A1B489BB2E218008992B29042A1F832
:40300000222D27D201225B4281F82A2DA1F8263D1EE0A1F8222D1DE0B1F8282D131A10481BB20089834211DDB1F8260D101A80B2FFF790FF40F6FF720023A1F8283DA1F82F
:40304000262D81F82A3DA1F8223D03E0002B01DAA1F8284DA1F8204D10BD00BF04CCFF1F78DAFF1F184910B591F82A3D174C7BB9B1F8263D2289C31A1BB2934203DD012357
:4030800081F82A3D1DE0002B1DDAA1F8260D10BDB1F8282D2489131A1BB2A3420FDDB1F8260D101A80B2FFF755FF40F6FF720023A1F8283DA1F8262D81F82A3D10BD002BF4
:4030C00001DAA1F8280D10BD04CCFF1F78DAFF1F1D4970B591F82B4D1C4A54B19389C01A1389C01A00B200282DDC002381F82B3D70BD91F82A3D53B993891289C31A9B1A40
:403100001BB2002B1FDD012381F82A3D19E0B1F8283D16891D1A2DB2B54210DD012081F82B0D9089181A80B2FFF714FF40F6FF73A1F8284DA1F8263D81F82A4D70BD9842F6
:4031400001D9A1F8280D70BD04CCFF1F78DAFF1F40F6FF72074B59800321198206491A815A81002218809A8159611A839A769A83FFF774BE78DAFF1FD130000008B5FFF721
:403180006DFE024B012283F83C2D08BD04CCFF1F443870B5152800F29980DFE800F00B0F14181C5597975B68976C9797977697977B97839488B200F0F7F98AE0464B002289
:4031C00083F83C2D85E088B200F0FBFA81E088B200F078FA7DE0414B6FF00301197203215972102199723E49022209881A70D96040F6F77101225A7000229A70DA701A71DD
:403200005A719A71DA71DA721A745A7403EB4200828201328A42314CF8D142F202030322E25442F203031E46FF22E2540025C5F500510431204689B200F0E8FA0544ADB243
:40324000B5420444F3D944E0081C18BF012000F0B1FA3EE0C1F30D03C1F3813121B1012937D11F4A538134E01D4A138131E088B200F0BDF92DE00029194B14BF012200222D
:403280009A7614BF988B084609E0154BD981FFF775FF1EE0124B88B298839B7ECBB100F09DF916E00E4B1982032912D8DFE801F0020407090B4A00E00B4A5A6109E00B4A91
:4032C000FBE70B4AF9E7064B198302E04FF0FF3070BD002070BD00BF04CCFF1F1C99FF1F78DAFF1F9D2F0000D92F000065300000D1300000024B002283F83C2D704700BFDD
:4033000004CCFF1F2DE9F843504E044696F83C3D0D4613B900EB41057EE04D4F3B8B012B1BD1FFF7C3FD00EB4105AC420BD034F8020BFFF7E1FDF8E7B6F82C3D93B998465A
:40334000B146A84519D1B6F8303D7A8801339BB29A42A6F8303D32D965E0022BECD000EB410523E0FFF7A2FD00EB4105AC42EAD034F8020BFFF7C0FDF8E734F8180079692E
:40338000FFF7BAFD8847B6F82C3D63B999F82A3D4BB1A8F1640020EAE070291A89B204EB4000FFF783FD08F10108CAE7AC42CAD034F8020B7969FFF79FFD8847F6E7234BEE
:4033C000B3F8383D0BB1FFF71BFD42F2040096F82E2D204BA6F8380D00FB0233C6F8343DFB890020013B9BB21849A6F82C0DFB817BB1531CDBB2012B94BF81F82E3D81F830
:403400002E0D96F82E0DFFF701FD0023A6F8303D09E081F83C3D06E0AC4204D034F8020BFFF76AFDF8E70A4B99890B4B1A881C46914202D900F0E4F802E001D200F0F0F896
:4034400040F6FF732380BDE8F88300BF04CCFF1F78DAFF1F1C99FF1FCC80FF1F034BB3F8380D003018BF0120704700BF04CCFF1F10B5094CB4F8381DD4F8340D00F0C6F9E6
:40348000B4F8383D1B1AA4F8383DD4F8343D1844C4F8340D10BD00BF04CCFF1F0E4AB2F90830B3F57F6F02DD4FF47F6304E013F57F6F02DA4FF210031381D3881089181AFC
:4034C00000B2B0F57F6FA8BF4FF47F6020EAE07080B203F039B800BF44D9FF1F30B5C3B000F096FE02F09AFD03F033F9002003F034F9254CA071012003F02FF9E07102209F
:4035000003F02BF9054603F026F9012D09D0022D4FF000030BD101222271637102F0CCFE06E000202571657102F0B6FE00E023710121164800F0A4F90021154800F0A0F9DD
:40354000E279A37900924FF48071124A02A803F05FFD02A8002100F093F900210E4800F08FF900210D4800F08BF900210C4800F087F901210B4800F083F902F047FD00F0AD
:403580003FFE43B030BD00BF78DAFF1FB9790000C4790000D7790000DD790000F0790000FF7C0000FC79000038B5084DB0F57F6FE88028BF4FF47F60044602F0E9FE204682
:4035C00002F0C2FF00232B8138BD00BF44D9FF1F014BB3F90800704744D9FF1F800080B2B0F57F6F28BF4FF47F6002F00DBB704708B502F057F8003018BF012008BD0000BE
:4036000008B5FFF7F5FF054B1A8908B1013A00E001321A81BDE80840FFF740BF44D9FF1F08B5FFF7E5FF054B1A8908B1013200E0013A1A81BDE80840FFF730BF44D9FF1FF8
:4036400038B5FFF7D5FF0A4C0A4D18B1A088963880B200E09620FFF7A7FF0749206803F033FB03F0FFF903F07FFCA88138BD00BF44D9FF1F78DAFF1F0000164338B5104D46
:403680000146044628604FF08B4003F0D1FB03F0E9F903F069FC2146A8804FF08A4003F0C7FB03F0DFF903F05FFC80B20830C0F3071002F0B1F9BDE83840FFF7C1BF00BF73
:4036C00044D9FF1F08B5C0F30D03800B012851D002D3022853D008BD102B5BD8DFE803F00909090F13191B1D1F21262B30353A3F4400012000F04AFC4FF07E5046E001203F
:4037000000F044FC40E0012000F040FC4FF080403CE001200BE0012013E001201BE0012023E0022000F032FC1B482FE0022000F02DFC1A482AE0022000F028FC184825E07D
:40374000022000F023FC174820E0022000F01EFC15481BE0022000F019FC144816E0022000F014FC124811E0022000F00FFC4FF081400BE0D8B2BDE8084000F007BC180AFB
:4037800002D003F049FA01E04FF07F50BDE80840FFF774BF08BD00BF0000104000002040000030400000404000005040000060400000704008B501F06FFFBDE80840FFF7F9
:4037C0003FBFC0B202F07CBF08B502F02FFC02F04FFC034B5B790BB9404200B208BD00BF78DAFF1F08B50121002000F027FE00F063FE0028FBD000F059FE0028FBD000F085
:40380000F7FF01F0B1F80028FBD008BD38B505460C4600F04BFE08B9002038BD01F0A4F80028F9D0402C05D92846402101F018F8402038BD2846214601F012F8204638BD8F
:4038400038B505460C4600F031FE90B101F08CF80028FBD00749084A2B46002C18BF0A460648402103F0D4FBBDE83840034801F015B838BD057A0000DA79000050D9FF1FEB
:4038800038B505460C4600F011FE90B101F06CF80028FBD00749084A2B46002C18BF0A460648402103F0B4FBBDE83840034800F0F5BF38BD097A00000D7A000050D9FF1FED
:4038C000014608B9024801E002480021FFF7D8BF107A0000B679000008B500F0E7FD40B101F042F80028FBD00D20BDE8084001F01FB808BD2DE9F74F0F46019000F0DCFD92
:4039000020B100F0D3FD08B100F072FF00F0CEFD002800F08E8001F01DF8002800F089804548464C01F02AF8254600265FFA80F8B3B243457DD294F88020234493F8403076
:40394000FAB9022B05D1012384F8812084F880306DE03B4A12681A445278920767D0012284F88120A3F16102192A9CBF203BDBB285F88230012385F88030324A324B1A6030
:4039800055E094F88120002A37D00D2B24D12F49DFF8B4B0CB43DBF800208A461344012B04DC94F88200019B98470BE0002111700AF10100102294F8829003F0E1FB01B2FC
:4039C0004846B847FFF77CFFFFF786FF002385F88030CBF800A02AE0194A12681A44527812F0440F23D0184818490268511A3F291DD802F8013B026019E0DFF84CA01349A1
:403A0000DAF800208B46501A03280CD1032B04D1B4F9831094F88200B847002385F88030CAF800B003E002F8013BCAF8002001367EE703B0BDE8F08F90D9FF1F50D9FF1F03
:403A40002081FF1FD3D9FF1FD880FF1FD2D9FF1F20B9034A137843F001031370704700BF435B004020B9034A137823F001031370704700BF435B0040012810B512D80A4AF4
:403A80004000C0B252F8201013180C781B7C23430B70431CD8B252F820101044037C0A7813430B7010BD00BF1C7A0000012810B514D80B4A4000C0B252F8201013181C7CEA
:403AC0000B7823EA04030B70431CD8B252F8201010440B78027C23EA02030B7010BD00BF1C7A0000012808D8044B03EB8002526918441178037F0B43137070471C7A000045
:403B0000012809D8054B03EB800252691844017F137823EA01031370704700BF1C7A00002DE9F04772B6AB4B61221A700024A3F5F06350221C809A7003229A80A64A1823F0
:403B4000472113705180137140F21F12A349A44E0A808B708A80A34ADFF8D8821370D6F8E42EA14B19251A60062283F80022522203F580731A709D4B9D4A1B7806F138478A
:403B8000DBB2137040F62A529A4B1A8042F2512223F8022C98F800304FF4F07003F0010343EA440402F0F0FD013D04F003042ED0032CEFD1904B4FF480721A8007221A70A3
:403BC0008E4A002548211570917002221D705D7103F8032C0422DA71894A8A4C1378DFF8588243F01F03137012F8013C4FF0060943F0010302F8013C237843F0800323701B
:403C000092F8463343F0040382F8463300E0FEE709FB058300215A8CD3F81E00013503F0EFF9082DF4D100221046830003F19043F95807EB420321F0FF05C9B20A4407EBEE
:403C4000420103F1904301F19041A133A3310233994206D013F803EC13F802CC0EF805C0F5E701302828E0D1674B684A0A271F700023136013619360D6F8E81E13629362DE
:403C80001363916102F55A4203321378604D43F002031370137CDFF8A48143F0020313742378A2F5863243F040032370413A1378DFF88C9143F010031370564B4FF0010CF4
:403CC00003CBC2F8400DC2F8441D93E8070003C52A8003F10C0203CA4F4A45F8E60C45F8E21C143303CBA2F56162C2F8100EC2F8141E1378202043F008031370474B02F5C6
:403D0000AA521B780C32DBB203F007011B0998F8005099F800601170537042F60412EDB245F00303F6B288F8003046F0030389F800303B4B06211A80412283F83120602290
:403D400083F86C174FF0100E83F8F527354A83F8F408DFF8F0A083F8F6C883F8F8E808231370937202228AF800208AF809C0DFF8D8C08CF800E0DFF8D4E04FF0800C8EF8ED
:403D800000C08EF8022040228EF830208EF85030254B18704FF48470A3F81D0083F820104FF48371A3F82110384683F8352083F8377001F0BFFD1D4B89F80060442288F87C
:403DC00000501B4D1A7094E80F0007C52B80BDE8F08700BF00480040864000408C4000408005004892400040004100400F010049A14600402242004004400040064000407C
:403E0000A2430040A04300408358004000760040F05100404014004832510040CF0100490C510040085A0040235B004076580040B0430040254200401C7A0000F846004077
:403E4000F94600408A5A0040985A0040D05A004008B503F0A9F803680C2B00D1FEE7FEE7084908B50B68084A1844821A802A01DC086005E003F098F80C2303604FF0FF3350
:403E8000184608BDDC80FF1F88DBFF1F80B51148114B0025C0B1A3F1100192C922460439161BB74204D051F8046F42F8046BF7E7114653F8046C8C1AA64202D041F8045B74
:403EC000F9E701381033E5E703F074F8FEF7E4FEFEE700BF01000000547D0000124A134B10B51A60124A134C1368134843F4007313600023032B98BF54F823204FEA830153
:403F000088BF0E4A0133302B4250F3D10C4B1A780C4B1A700C4B084A1A60FFF701FEBDE8104001F031BC00BF0004FA050CED00E014ED00E0002C00000080FF1F513E000073
:403F4000BC760040C080FF1F08ED00E0084A137843F001031370137C43F00103137402F5A6520E32137843F080031370704700BFA9430040044A00F00300137803F0FC0365
:403F800018431070704700BF0158004010B586B06C460246174B082A5968186803C4197A53F8090F2170596803AC03C41B7A23701ED8114C06A92378881803F08003DBB260
:403FC000237010F80C1C237810F8182C890001F00C0113430B43094A2370137803F0F3031370137810F80C1C43F00C030B43137006B010BD707A00000258004001580040A1
:4040000008B5094B0C221A70084A0020137843F020031370064B1870FFF7B8FFBDE808400320FFF7A7BF00BF00580040015800400258004010B5054C23781BB9FFF7E0FF0B
:4040400001232370BDE81040FFF780BF12DAFF1F73B515461E460B4C03230022019200920A4601461846237001F002FC32462946207801F0D9FB0221207801F0C3FB2078ED
:4040800002B070BDE080FF1F064A1023136002F688321268E0211065034A1170A2F541721360704780E100E004E400E010B502F073FB214A044613780A2043F00103137077
:4040C000137C43F00103137412F8093C43F0020302F8093CD37943F00203D37102F5AA521832137843F003031370144B04221A7013F8012C02F0BF0203F8012C13F8012C07
:4041000042F0030203F8012C082203F8062CA3F597530222123B1A70094A137843F00803137001F007FC074B01222046BDE810401A6002F035BB00BFAB4300400659004001
:40414000275B004080E200E0082804D00A280CBF8423C42300E0442308380E4AC0B20428137098BF0C4B4FF0000298BF33F910100A4B88BF11461A8042F210734B4341F215
:40418000883103F6C41393FBF1F305490B60054B1A80704702590040827A000098DAFF1F9CDAFF1F9ADAFF1F08B5102001F086FA0721002001F0D4FB0749002001F0C2FBD9
:4041C000064A0C20137843F006031370FFF7BCFF034B00221A8008BD2142000001590040A0DAFF1F10B5054C23781BB9FFF7DCFF01232370BDE81040FFF758BF13DAFF1FCA
:40420000024A137843F001031370704700590040024A137803F0FE03137070470059004070470000F8B502F0B7FA474A01271378022643F001031370137C444C43F001037C
:404240001374434B02F5E3521F700B3203F8946C1378054603F07F031370002001F06AFB23783C4A03F0F90323701378384603F0DF03137023783B43237001F05BFB2820B3
:4042800001F058FB344B30461A7802F07F021A701A7802F0BF021A7023783343237001F049FB23782D4A43F0040323700023137053702B4AFF2199540133092BFBD1284622
:4042C00002F06EFA0721172001F04AFB2549172001F038FB0721182001F042FB2249182001F030FB0721152001F03AFB1F49152001F028FB0721012001F032FB1C49012098
:4043000001F020FB0721022001F02AFB1949022001F018FB0721032001F022FB1649032001F010FB0021162001F01AFB1349162001F008FB07210C2001F012FBBDE8F840A0
:404340000F490C2001F0FEBAA5430040944300409D60004012600040F851004084600040ABDAFF1FB34E0000DD4C0000B14E00001D4E0000494E0000794E0000B94E000099
:404380002D4F000008B5204B204A1870002313701F4A072013701F4A13701F4A13701F4A13701F4A13701F4A13701F4B4FF400021A604FF080721A604FF400121A6002224B
:4043C0001A6004221A6008221A60184A10704FF480021A60164B20221A70933B19B91A7802F0FE0202E01A7842F001021A70114B03221A70802203F8202C012002F0C4F996
:404400000D4B04221A7008BDC5DAFF1FC8DAFF1FE0DAFF1FE3DAFF1FD8DAFF1FE2DAFF1FE5DAFF1FC4DAFF1F00E100E09E6000409C600040286000401260004070B5074C0F
:40444000054623780E461BB9FFF7ECFE0123237031462846BDE87040FFF794BF14DAFF1F0A4A002313700A4A13700A4A13700A4A13700A4A13700A4A13700A4A13700A4BAF
:4044800003221A70802203F8202C7047C8DAFF1FE0DAFF1FE3DAFF1FD8DAFF1FE2DAFF1FE5DAFF1FC4DAFF1F28600040014B1878704700BFE3DAFF1F044B1A7802F0FF0030
:4044C0001AB118780022C0B21A707047E0DAFF1F024A0C2303FB002040787047E6DAFF1F431E072B0CD8074A064B00010344805C5B7800F00F0043EA0020023880B270474F
:4045000000207047FC5F0040194A10B50C2303FB00231B79090C13F0800F19BF8AB24FF480438BB24FF48042022804460AD003280FD0012813D10021084601F001F90D4BE3
:4045400058700CE00021084601F0DEF8094B987005E00021084601F0BBF8064BD870631E072B03D801F0A4F9034B185510BD00BFE6DAFF1FA2DAFF1FABDAFF1F431E072B53
:404580002DE9F0470446894615465CD82F4F0C2202FB0072D388DFF8B8A09BB2C3F500739D424FF00C0303FB007388BFD588DB7884BFC5F50075ADB2254A43EA15230601A8
:4045C000B354B244EBB28AF80130224B1A5C9846FF2A01D1FFF798FF0C2303FB047200215170B9F1000F28D03DB31B4F385D01F0F7F811232946FE2218F8040001F072F9ED
:4046000006F5C04278321FFA89F118F8040001F07BF9124D18F80410385D01F01DF90121385D01F0C7F8735D43F002037355735D03F0FD037355BDE8F08703FB0474637978
:40464000DBB28AF80230BDE8F08700BFE6DAFF1FFC5F0040ABDAFF1FA2DAFF1F706000402DE9F047044615468846002940D0431E072B3FD8FFF734FFA84203D22046FFF771
:404680002FFF05461D4E335DFF2B03D141462046FFF73AFFDFF868A027011AF8040001F09FF81223FE222946305D01F01BF907F5C0411FFA88F27831305D01F025F9DFF8C5
:4046C0004490315D1AF8040001F0C6F801211AF8040001F06FF817F8093043F0020307F8093017F8093003F0FD0307F8093002E00D4600E000252846BDE8F087ABDAFF1F71
:40470000A2DAFF1F70600040431E072B0AD8064A0C2303FB002300225A705A79034BD2B200011A54704700BFE6DAFF1FFE5F004070B5094C094DFF2100230C26E25C06FB45
:404740000252927A824204BF194602230133DBB2012BF3D0084670BDB8DAFF1FE6DAFF1F10B51E4C2079FFF7E3FF237813F0800F63780DD0212B2ED1BDE81040184B0722C4
:404780001A80184AC0EBC0001044586000F0FCBADBB2202B0ED0222B1DD1A378124A22F81030124A135C43F002031354BDE8104000F0CAB90A4A07230A491380C0EBC0037A
:4047C0000B445360094A135C43F001031354BDE8104000F0FFBA002010BD00BF00600040CCDAFF1FE180FF1FC0DAFF1FB4DAFF1F10B5164A00231370154A164C13705370F4
:404800002078C0B2431E072B01D8FFF77DFF6078C0B2431E072B01D8FFF776FF0E4A13788BB123787BB10D4B197861B11278082A09D8084A1278082A05D81878082894BFF3
:404840000020012010BD012010BD00BF15DAFF1FB4DAFF1FBADAFF1FB6DAFF1FB8DAFF1F0A4610B40A4B0B491B780B4CCB5C0C21DBB201FB03410C89A4B2944238BF0A89A1
:4048800010BC014638BF92B21846FFF777BE00BF15DAFF1FB6DAFF1FE6DAFF1F2DE9F84F8346204B204A1B78D75C0023FFB29CB21BF804500133002DF9D12E464FF00C088D
:4048C00008FB07F8194B03EB0809B9F808300BEB06019BB29C4294BF2546B9F80850384688BFADB2641B2A46A4B2DFF840A0FFF745FE2CB90AEB08031B899BB29D420FD18D
:404900003544AEB2C2449AF80130002BFBD0002CDBD1224621463846BDE8F84FFFF72EBEBDE8F88F15DAFF1FB6DAFF1FE6DAFF1F07B5064B064A1B7802A901F8010DD05C59
:404940000122FFF71BFE03B05DF804FB15DAFF1FB6DAFF1F024B034A1B78D05CFFF7B8BD15DAFF1FBADAFF1F024B034A1B78D05CFFF7AEBD15DAFF1FB6DAFF1F38B50D4B06
:404980000D4A1B780146D45C0C4AE4B20C2303FB04231A89204692B2FFF762FE05462046FFF796FD0128FAD02046FFF7ADFE284638BD00BF15DAFF1FBADAFF1FE6DAFF1FC0
:4049C000C37890F9020003F0030300280FDA032B15BF0C480C4802F00103C2F3800319BFC15442F00102C15442F0040207E0032B1FBF0648C2F34003C15442F002021046C6
:404A0000704700BFB6DAFF1FB8DAFF1FBADAFF1F30B51A4A1A491B4D0878138803449BB21380194A00231488D8B2A4B27CB1082B0CD050680078C0B2E85450680133013061
:404A400050601088013880B21080ECE718460B780E4C082B0E4A00D040B10E4D2B7883F080032B700F232370022301E0022323701370094B1870087030BD00BFC6DAFF1F46
:404A8000C4DAFF1F00600040CCDAFF1FE1DAFF1FC8DAFF1F54DBFF1FE4DAFF1F074B02221A70074B80221A70064B0F221A70064A00231370054A012013707047C8DAFF1F2A
:404AC00054DBFF1FE1DAFF1FC4DAFF1FE4DAFF1F30B5164B16491B780A8803F00F03023BDBB21A4492B20A80124C134A0020118889B279B173B15568215C013BC9B22970AC
:404B00005168DBB20131516011880130013989B21180ECE7094A1370094A137883F080031370084B0B221A7030BD00BF29600040C6DAFF1F00600040CCDAFF1FE4DAFF1FFF
:404B400054DBFF1FE1DAFF1F064A06231370064A01201370054B80221A70054B00221A70704700BFC8DAFF1FE1DAFF1F54DBFF1FE4DAFF1F054B9A683AB19A680449107063
:404B80009A680988518000229A607047CCDAFF1FC6DAFF1F08B5124B1A78D2B21A701B78DBB21A0602D50F4A137008BD0220FFF7E1FF0D4B1B7803F06003202B05D0402B06
:404BC00006D043B900F02AFC04E001F0EDFD01E000F058FD10B9034B03221A7008BD00BF28600040E1DAFF1F0060004008B5084A084B0120197813880B449BB21380064B2E
:404C000000221A70FFF7B6FF044B03221A7008BDC6DAFF1FC4DAFF1FC8DAFF1FE1DAFF1F08B50C4B1B78DBB2042B07D0062B09D0022B0DD1BDE80840FFF7D8BFBDE8084091
:404C4000FFF746BF0320FFF795FF034B03221A7008BD00BFC8DAFF1FE1DAFF1F08B5054B002201201A70FFF785FF034B03221A7008BD00BFC8DAFF1FE1DAFF1F08B50A4BF2
:404C80001A7832B11A78094942F080020A7000221A70074B002201201A70FFF76BFF054B03221A7008BD00BFE2DAFF1F08600040C8DAFF1FE1DAFF1F074B1B78DBB2042B03
:404CC00005D0062B05D0022B05D1FFF7A1BEFFF7C5BFFFF7D3BF7047C8DAFF1F38B51D4C2378DBB2DD0634D518060AD503F00F03012B2ED1FFF74EFF174B1B78190609D53C
:404D000038BD5A0602D5FFF7D7FF03E09D0620D5FFF786FF23781B061BD4104B1A78104B1B7813430F4A13701278934211D10A4A0849154613782078DBB2000605D4137872
:404D4000DBB20B700B7803F00F0328788342F1D138BD38BD28600040E1DAFF1F54DBFF1FE4DAFF1F29600040054A00231380054A916819B191680B7092685380704700BF31
:404D8000C6DAFF1FCCDAFF1F0E4808B503889BB213B9FFF783FE13E00B4B02221A700B4B00221A70FFF7E0FF094AD1799379028843EA012392B2934238BF0380FFF728FE42
:404DC000012008BDCCDAFF1FC8DAFF1F54DBFF1F0060004008B50C4B04221A700B4B80221A70FFF7C1FF0A4A0120D179937943EA012308490A8892B2934238BF0B80064B75
:404E00000B221A7008BD00BFC8DAFF1F54DBFF1F00600040CCDAFF1FE1DAFF1F084B01221A700F3B9B7C074B1A7B02F00302012A1EBFDA7B82F08002DA7301225A73704769
:404E40000B600040E6DAFF1F094B02221A700F3B93F82230074B1A7E02F00302012A1EBFDA7E82F08002DA7601225A76704700BF0B600040E6DAFF1F0B4B04221A700F3BB9
:404E800093F83230094B93F8242002F00302012A1EBF93F8272082F0800283F82720012283F82520704700BF0B600040E6DAFF1F7047FFF7D5BA0000F0B5184B184E19783E
:404EC0000C27C9B201234FF0000C31B3CA0720D5144A4FEA031E7244947850782040C5070DD507FB03652C79240608D5147804F0FE0414706D790C4CEDB204F80E508407BD
:404F000006D507FB036425792D0658BF84F801C090700133DBB24908D7E7F0BD9F600040E6DAFF1F70600040FE5F004000F024BC70B50446184B88B003AA03F110061546D5
:404F400018685968083303C5B3422A46F7D11B782B70FCB12223237001AD03232846637000F008FD002220461146AB5C08AC04EB131414F8144C03F00F03847008AC2344D3
:404F800013F8143C0132082AC1700371417100F10400EAD108B070BD8C7A00002DE9F0431C4D01222E460C201F274FF0800E4FF0080C194B00FB02581401234418705F70D8
:404FC000164998F805902144B9F1000F07D098F8044024064CBF887081F802C001E081F802E000FB0261CC880132E4B29C71CC88092AC4F30724DC71CC88E4B21C71C988BA
:40500000C1F307215971D4D1054BFF221A70BDE8F08300BFE6DAFF1F70600040FC5F00400A600040064B074A1B7802EBC30253681A7C824286BF03EBC00358690020704796
:40504000C5DAFF1FA07A00002DE9F84F424B1A78002A7ED01878414D0138C0B2FFF7E2FFA8463F4AC3681478007ADFF800C1E4B203EBC0000C2600274FF0010E834268D09D
:405080001A78A24263D11CF80420597891425ED19A7893F8039002F07F0206FB02FA05EB0A01CF7093F802B009F0030981F804B093F803B005F80AB0B3F804A0A1F808A06D
:4050C00093F902A0BAF1000F0BDAB9F1010F0CBF4FF007094FF00D0981F8059081F801E009E0B9F1010F0CBF4FF005094FF0090981F805904F704FEA02191A4906FB02823D
:40510000494481F802E0B2F808A0CAF3072A81F800A0B2F808A05FFA8AFA81F801A0B2F806A011495FFA8AFA494481F806A0B2F80690C9F3072981F80790B2F806905FFADD
:4051400089F981F80490D288C2F307224A71083394E7BDE8F88F00BFE3DAFF1FE6DAFF1FD8DAFF1FFC5F00407060004052DBFF1F08B5064B18780138C0B2FFF753FF20B12B
:4051800043681B7900EBC300406908BDE3DAFF1F2DE9F74F00210B46564E0C2707FB01F501317219092973554FF000049370DFF84491D3701381937253705371EED128B178
:4051C0004D4A4E4B14701C7054705C704C4B1A78002A00F08C80187801270138C0B2FFF721FF80464368057ADB79ED0013F0400F444B4FF0000C1A784FF00C0A14BF42F0CE
:40520000010202F0FE021A700AFB0796D8F80C40FBB204EB050B5C453AD0A07800F07F01B94233D13189B4F804E089B2714538BFA6F808E02178304A94F801E0515C8E459B
:4052400024D13071E178317094F90200E178002801F0030106DA01290CBF07210D217171012105E001290CBF05210921717100217170A17901F0F701022907D1624619464F
:4052800020460193FFF79CFB8446019B0834C2E70137092FB8D1D8F80C200A35931C15440C210833AB4209D013F8082C13F80A0C02F07F0201FB02929072F2E7FFF758FF27
:4052C000114B0121186000230C2000FB0192D3801289013113449BB203F00102134409299BB2F2D103B0BDE8F04FFFF757BE03B0BDE8F08FE6DAFF1F52DBFF1FC9DAFF1F25
:40530000E3DAFF1FE5DAFF1FDCDAFF1F114B1B7903F07F035A1E072A19D80F490C2202FB031291781B0141F0010191700021D170517841F002015170127912F0800F074A64
:405340001A4414BF8D2389239370FFF7FDBB0020704700BF00600040E6DAFF1FFC5F004030B4194B1A7902F07F02531E072B27D8164B0C2404FB02339978154D01F0FE0128
:4053800099700021D97029461201505D114400F07F0050555A7802F0FD025A701A795B78120605D5012B01D18C7006E00D2303E0012B0CBF082309238B7030BCFFF7C4BB60
:4053C000002030BC704700BF00600040E6DAFF1FFC5F004010B50D4B0D4C21791878C9B20138C0B2FFF71EFE43681B798B4201D2022909D8074A0848535CDBB24354A378C0
:405400000120DBB2535410BD002010BDE3DAFF1F0060004052DBFF1FC9DAFF1F38B5884A884C13780021DBB221801806517840F188800A2900F20181DFE811F05800FF0083
:40544000FF00FF00FF00FF000B00FF007900FF007D00D3787A49012B09D17B4B1A787B4B03EBC2035B685B686360122310E0CB78022B12D18878FFF7D5FD002800F0DD804E
:40548000436863606368DA7863689B7843EA02232380BDE83840FFF777BCCB78032B21D16B4B00228878D5B2854203D3644A92783AB910E0187801320028F7D018780344C5
:4054C000F0E75F4A63499278097C914203D16248FFF72EFD604B1A78002A00F0AE801A78228018E0BDE8384001F05EB913F0030313D0022B40F0A1802380514B0C211B793F
:4055000003F07F02554B01FB02339A78544BD2B21A7000225A706360BBE702222280514A11784F4AC9B2117053706260B1E7012323804D4BEFE70123238013794B4A134406
:40554000E9E701390A2978D8DFE801F037774F77067777770A7720009378454ADBB25AE0937803F0FF0153B93F4B1A78914260D01970404B01201870FFF70AFE59E0481E82
:40558000C0B2FFF74FFD0028EED156E0FFF722FF002852D02A4A384913791279DBB2D2B20A70364A3149D25CCB5C9A4241D0314B01221A70FFF748FD3BE003F00303012B42
:4055C0002BD009D3022B38D11D4B9B78002B34D1BDE83840FFF7C4BE194B9B78012B2CD1204A137803F0FD0315E003F00303012B13D008D3022B20D1114B9B78EBB9BDE828
:405600003840FFF783BE0E4B9B78012B15D1154A137843F0020313700BE0094B1A79012A0BD898781B791649DBB2CA5C22EA0002CA54BDE83840FFF787BA002038BD00BFAE
:4056400000600040CCDAFF1FC5DAFF1FA07A0000047B0000E67B00005CDBFF1FE6DAFF1F16DAFF1FE5DAFF1FE3DAFF1F52DBFF1FE2DAFF1FE0DAFF1FD8DAFF1FC9DAFF1F88
:4056800055DBFF1F034B00201A78120648BF5B78704700BF00600040014B1870704700BF73640040014B1878704700BF73640040014B01221A60704780E100E0034A00F0AC
:4056C000F800137803431370704700BF86400040F7B516461F460B4C00230225019300930A4601462846257000F0C2F83A463146207800F099F82946207800F083F820784F
:4057000003B0F0BDF980FF1FF7B516461F460B4C00230125019300930A4601462846257000F0A6F83A463146207800F07DF80221207800F067F8207803B0F0BDFA80FF1F88
:4057400073B515461E460B4C0023019300930A4601461846237000F08BF832462946207800F062F80221207800F04CF8207802B070BD00BFFB80FF1F024B1878C0F38010FF
:40578000704700BF8F450040074A7F23802113705170064A013BDBB202F80839002BF9D1034A1370704700BFFC80FF1FF87B00400078004017280FD8084B0001C25C11B199
:4057C00042F0200201E002F0DF02C254C25C42F00102C25400207047012070471070004017280BD8064B0001C25C02F0FE02C254C25C02F0DF02C254002070470120704763
:405800001070004017280BD8064A0001835C490003F0F10301F00E011943815400207047012070471070004041F6FF73994208BF4FF400519A4208BF4FF4005217289FBFD2
:40584000C00000F1804000F5EC4081809ABFC280002001207047000017289FBF034B00011954002088BF0120704700BF19700040172810B51AD8C00001F07F0100F1804406
:4058800041EAC21204F5EC44D2B222709DF8082003F00F0343EA0213DBB263709DF80C30002003F00F03A370E07010BD012010BD10B500F071FF0A4A5378182B0AD914783C
:4058C000013B5370E30003F1804303F5F0431B78137000E0FF2400F063FF204610BD00BFFC80FF1F30B504060CD411F4704509D1C40004F1804404F5F0442180A270E370DA
:40590000284630BD012030BD03065FBFC00000F1804000F5F04081805ABFC2800020012070470000024A137843F0010313707047F6460040024B1B7A584300F025BF00BF19
:405940000481FF1F054A00F01F00126800F1100352F8230042F82310704700BF08ED00E000F01F0000F16040490100F56440C9B201707047134B144A1B78DBB20360127894
:4059800043EA0223114A0360127843EA0243104A0360127843EA026303600E4B0E4A1B78DBB24360127843EA02230C4A4360127843EA02430A4A4360127843EA02634360A4
:4059C000704700BF0301004904010049EC4600400201004901010049000100490501004906010049044A137843F001031370137C43F0010313747047A8430040054B00F0A2
:405A000002001A7802F0FD021A701A7810431870704700BF20580040014B1870704700BF805B0040064B074A1B78C3F3810303F19243063393F82031DBB21370704700BF84
:405A40002058004008460040054B00F00C001A7802F0F3021A701A7810431870FFF7E2BF2058004008B5064A0023137004205370FFF7EAFFBDE808400220FFF7BFBF00BF1A
:405A80002058004008B506490B781BB9FFF7EAFF01230B70FFF7A6FF024B80221A7008BD18DAFF1F805B0040084A137843F060031370A2F5A652133A137843F00203137031
:405AC000137C43F002031374704700BF77580040054B00F003001A7802F0FC021A701A7810431870704700BF5A5800400320FFF7EFBF000008B5054B1A781AB901221A70C9
:405B0000FFF7F4FFBDE80840FFF7CEBF19DAFF1F084A137843F060031370A2F5A652133A137843F001031370137C43F001031374704700BF77580040054B00F003001A783D
:405B400002F0FC021A701A7810431870704700BF585800400320FFF7EFBF000008B5054B1A781AB901221A70FFF7F4FFBDE80840FFF7CEBF1ADAFF1F70B5134C00F0B6F865
:405B80002378FF2B1FD10121104E4FF4804341F6FF72084600F054F8354605F8010BFFF787FE0123024610212070FFF79BFEA9B2207845F68332FFF7A7FE21783078BDE859
:405BC0007040FFF749BE70BD1481FF1F1BDAFF1F08B5054B01211878FFF7ECFD00F09CF8BDE8084000F048B81BDAFF1F10B5054C637C1BB9FFF7C0FF01236374BDE8104085
:405C0000FFF7E6BF1BDAFF1FC0F30712FF2A10B54FF00003094904D1CA540133102BFBD110BD00F00F00C0F11000541C8342B4BFCA54CC540133102BF8D110BD1CDAFF1FAE
:405C4000F7B516461F460B4C00230525019300930A46014628462570FFF70AFE3A4631462078FFF7E1FD02212078FFF7CBFD207803B0F0BD1581FF1F044A137843F00803B5
:405C80001370137C43F0080313747047A8430040054B00F002001A7802F0FD021A701A7810431870704700BF2C580040064B074A1B78C3F3810303F19243063393F83831D0
:405CC000DBB21370704700BF2C5800400B460040054B00F00C001A7802F0F3021A701A7810431870FFF7E2BF2C58004008B5084B0020084A18705870137843F00803137094
:405D0000FFF7E6FFBDE808400220FFF7C1BF00BF2C5800409F5A0040044A137843F004031370137C43F0040313747047A243004008B50020FDF7BAFE0120FDF7B7FE024BE5
:405D4000FF221A7008BD00BF1681FF1F38B5064B054618781C46FF2801D0FDF7A7FE2846FDF78AFE257038BD1681FF1F2DE9F843334B38221A7006229A700822DA7000248D
:405D80001F221C7101255C719A7114221C725C729C721D7583F8842A092283F8852A294A12210A234FF011081370547082F8048051719571147254729372234B43221A7081
:405DC00000F0EAFC8146214F214E3B78442243F003033B703378032043F0030333701D4B1A70FFF7A7FD3B78484603F0FC033B70337803F0FC03337000F0D2FC164B47224E
:405E00001A70164A5C70022313705370144B20461C705C7000F04CF9124B4FF47A62294640461A6000F050F9294640F2312000F0B9F9BDE8F8430C491D20FFF783BD00BFD0
:405E4000004E00408658004091580040F8460040F946004092580040945800409A5800409C58004058DBFF1F9160000070B5244D244E00240123102033702C7000F088F922
:405E8000102000F0F5F907211D20FFF769FD1E4B04221A701D4A5C701C72137843F0180313701B4B0A221C7083F8F54283F8F642133B1A7012225C70DC701A7213225A72A9
:405EC0005C731422A3F67F231A700D232B7142F26D336B80337815F823200E4B1A70337805EB830333F8022C0B4B1A803378AC71012B03D1BDE87040FFF738BF70BD00BF0F
:405F000030DAFF1F1781FF1F96580040075B0040935800400E4E00400C4E004070B500F03BFC294B294D1B78294B2A4C1A78064642F001021A701A78032042F010021A707F
:405F40001A7C42F001021A741A7C42F010021A742B78214A43F002032B70237843F002032370137843F003031370FFF7E3FC2B781A4A03F0FD032B702378304603F0FD0364
:405F80002370137843F006031370154B7A221A70144A137843F001031370137C43F001031374537843F001035370537C43F0010353740D4A4FF000531360A2F5C072136064
:405FC000BDE8704000F0ECBB1781FF1FF8460040AA430040F9460040915800407758004082580040A143004080E200E010B5064CE3792BB9237A0BB9FFF738FF0123E371C0
:40600000BDE81040FFF78ABF30DAFF1F024A137843F0010313707047004E0040024A137803F0FE0313707047004E00400C4B1A78043B02F00302012A02D8188880B208E0BD
:4060400008491B780878032A43EA002004BF064B1B78064B9A790AB100221A7000B27047144E0040114E0040124E004030DAFF1F054B064ADB681268C01A4FF47A7358435C
:4060800090FBF2F000B2704730DAFF1F58DBFF1F7047000008B50020FDF732FD0120FDF72FFD024BFF221A7008BD00BF1881FF1F10B50446FFF7EEFF2046FDF713FD014BBE
:4060C0001C7010BD1881FF1FF0B52B4B2B4E1F78328807F0070792B290424BD0284D2C78E4B26FB932B158B91A7842F040021A703080F0BD30801A7802F0BF021A70F0BD91
:4061000014F0010421D01F4F1F4B00264FF0010E1E7087F800E03E7117F8086C06F07F0607F8086C144E3678360700D568B9174E328007221A701A7812F00102FBD12B78F9
:4061400003F0FE032B70104B1A702B780C4ADD070BD50E4B0029188014BF03220122013B1A701A78D207FCD4F0BD044B188013781C431470F0BD00BF824000408040004048
:40618000A2430040104000400140004002400040034A00F0F800137803431370704700BF82400040F0B52C4B2C4E1F78328807F0070792B290429E464CD0294D2C78E4B274
:4061C0006FB932B158B91A7842F040021A703080F0BD30801A7802F0BF021A70F0BD14F0010422D01F4F204B00264FF0010C1E7087F800C007F8046C17F80C6C06F07F06E6
:4062000007F80C6C9EF80060360700D568B9174E328007221A701A7812F00102FBD12B7803F0FE032B70104B1A702B780C4ADD070BD50E4B0029188014BF03220122013B4C
:406240001A701A78D207FCD4F0BD044B188013781C431470F0BD00BF0241004000410040A1430040144000400140004002400040034A00F0F800137803431370704700BF2D
:406280000241004008B50020FDF7ECFB014BFF221A7008BD1981FF1F38B5064B054618781C46FF2801D0FDF7DDFB2846FDF7D0FB257038BD1981FF1F10B5044C2078FF28AD
:4062C00003D0FDF7CFFBFF23237010BD1981FF1F044A00F03000137803F0CF0318431070704700BF78580040044B1A7822B9012230201A70FFF7ECBF704700BF40DAFF1FAC
:4063000070B5134C00F0B6F82378FF2B1FD10121104E4FF4804341F6FF72084600F054F8354605F8010BFFF7C3FA0123024610212070FFF7D7FAA9B2207845F68232FFF7CB
:40634000E3FA21783078BDE87040FFF785BA70BD1A81FF1F41DAFF1F08B5054B01211878FFF728FA00F09CF8BDE8084000F048B841DAFF1F10B5054C637C1BB9FFF7C0FF67
:4063800001236374BDE81040FFF7E6BF41DAFF1FC0F30712FF2A10B54FF00003094904D1CA540133102BFBD110BD00F00F00C0F11000541C8342B4BFCA54CC540133102BBB
:4063C000F8D110BD42DAFF1FF7B516461F460B4C00230425019300930A46014628462570FFF746FA3A4631462078FFF71DFA02212078FFF707FA207803B0F0BD1B81FF1FC6
:40640000044A137843F004031370137C43F0040313747047A8430040054B00F002001A7802F0FD021A701A7810431870704700BF28580040064B074A1B78C3F3810303F13F
:406440009243063393F82831DBB21370704700BF285800400A460040054B00F00C001A7802F0F3021A701A7810431870FFF7E2BF2858004008B5094A00231370537092F83E
:406480006F32042043F0080382F86F32FFF7E4FFBDE808400220FFF7BFBF00BF28580040044A137843F010031370137C43F0100313747047A243004070B5134C00F0B6F8E7
:4064C0002378FF2B1FD10121104E4FF4804341F6FF72084600F054F8354605F8010BFFF7E7F90123024610212070FFF7FBF9A9B2207845F68132FFF707FA21783078BDE800
:406500007040FFF7A9B970BD1C81FF1F53DAFF1F08B5054B01211878FFF74CF900F09CF8BDE8084000F048B853DAFF1F10B5054C637C1BB9FFF7C0FF01236374BDE810400C
:40654000FFF7E6BF53DAFF1FC0F30712FF2A10B54FF00003094904D1CA540133102BFBD110BD00F00F00C0F11000541C8342B4BFCA54CC540133102BF8D110BD54DAFF1FF5
:40658000F7B516461F460B4C00230625019300930A46014628462570FFF76AF93A4631462078FFF741F902212078FFF72BF9207803B0F0BD1D81FF1F044A137843F0020356
:4065C0001370137C43F0020313747047A8430040054B00F002001A7802F0FD021A701A7810431870704700BF24580040064B074A1B78C3F3810303F19243063393F830319D
:40660000DBB21370704700BF2458004009460040054B00F00C001A7802F0F3021A701A7810431870FFF7E2BF2458004008B5094A00231370537092F86B32042043F0080378
:4066400082F86B32FFF7E4FFBDE808400220FFF7BFBF00BF24580040044A137843F008031370137C43F0080313747047A2430040024A137843F00103137070477664004000
:4066800008B500F089F8064B1A7802F0FB021A701A78D2B21A70BDE8084000F081B800BF9664004010B5054C23781BB9FFF7E8FF01232370BDE81040FFF7DABF65DAFF1FA7
:4066C000014B1870704700BF7C640040084A137843F060031370A2F5A652133A137843F004031370137C43F004031374704700BF77580040054B00F003001A7802F0FC027C
:406700001A701A7810431870704700BF5C5800400320FFF7EFBF000008B5054B1A781AB901221A70FFF7F4FFBDE80840FFF7CEBF66DAFF1F024B40221A70FFF7F3B800BFC2
:40674000FA46004008B500F079F8BDE8084000F0A3B8FFF7F7BF00F0C7B838B5044600F01BF8054600F0D2F804F1804303F500431C7800F0D7F8E4B2284600F011F8204640
:4067800038BD0000000000000230800803D000BF01380046FCD17047EFF3108072B6704780F31088704700BF0F4A137803F00303012B0AD0022B0DD113790C2103F07F02A8
:4067C0000A4B01FB02339B7A00E01379DBB2022B08D800E00023064A1268D35C022B01D1FDF7BEBF0020704700600040E6DAFF1FDCDAFF1F38B500F09DF800F0E5F8C0B9AB
:4068000000F01CF90728044610D10B4D2A780A4B910703D40120FFF78DF8F7E71A78920704D51B789B0814BF0724002400F0ECF800E00424204638BD2247004070B5FFF76A
:40684000D9FF044610BB00F075F800F0BDF8E0B9012000F09FF807280AD10D4D02210D4800F07AF802280A4E05D02B789B07F5D54FF0FF3406E033789A0703D40120FFF7B2
:4068800059F8F8E700F0C0F800E00424204670BD224700407EDBFF1F08B5FFF77DFF0F4A137843F008031370137C43F0080313740B4BC8221A700B4A137843F010031370AA
:4068C000137C43F01003137402F5557213789B06FCD5BDE80840FFF763BF00BFA043004001470040AC43004008B5FFF755FF064A137803F0EF031370137C03F0EF0313749E
:40690000BDE80840FFF74CBFAC430040044B1A7842F001021A701A789207FCD5704700BF02470040024A137803F0FE03137070470247004008B5FFF72FFF064A137843F022
:4069400008031370137C43F008031374BDE80840FFF726BFA04300402DE9F0410E464B1E0A4FDFF82C80451EC418A5420BD03B78DB0703D40120FEF7DDFFF8E798F800306C
:4069800005F8013FF1E73046BDE8F08122470040204700400A4A137899070CD5094BB6211970E12119700E2119701278920704D4187007207047042070470920704700BFB4
:4069C000224700402047004038B5FFF7E5FE0C4A147874B901250B4915700B682B400AD00B6823F001030B6000BF00BF00BF556002E0042400E01C46FFF7D2FE204638BD67
:406A000068DAFF1F0400084010B5FFF7C5FE094B00215A681970012A08D1074C226842F00102226000BF00BF00BF5960BDE81040FFF7B6BE68DAFF1F04000840074B1B78EE
:406A40009B0708D5064BB6221A70E0221A700D221A70072070470420704700BF224700402047004008B5C0F3C7537F3B162B01460EDC002B024610DB0B481841014205D0FF
:406A80004FF480011941114421EA0001084608BD802BFBD100F010F808BD013300F00041F4D141F07E51F1E7FFFF7F0080F0004002E000BF81F0004142001FBF5FEA4103E1
:406AC00092EA030F7FEA226C7FEA236C6AD04FEA1262D2EB1363C1BFD218414048404140B8BF5B42192B88BF704710F0004F40F4000020F07F4018BF404211F0004F41F485
:406B0000000121F07F4118BF494292EA030F3FD0A2F1010241FA03FC10EB0C00C3F1200301FA03F100F0004302D5494260EB4000B0F5000F13D3B0F1807F06D340084FEA33
:406B4000310102F10102FE2A51D2B1F1004F40EBC25008BF20F0010040EA03007047490040EB000010F4000FA2F10102EDD1B0FA80FCACF1080CB2EB0C0200FA0CF0AABFFC
:406B800000EBC25052421843BCBFD0401843704792F0000F81F4000106BF80F400000132013BB5E74FEA41037FEA226C18BF7FEA236C21D092EA030F04D092F0000F08BF13
:406BC0000846704790EA010F1CBF0020704712F07F4F04D1400028BF40F00040704712F100723CBF00F50000704700F0004343F0FE4040F4000070477FEA226216BF0846A6
:406C00007FEA23630146420206BF5FEA412390EA010F40F4800070474FF0000304E000BF10F0004348BF40425FEA000C08BF704743F0964301464FF000001CE050EA010224
:406C400008BF70474FF000030AE000BF50EA010208BF704711F0004302D5404261EB41015FEA010C02BF84460146002043F0B64308BFA3F18053A3F50003BCFA8CF2083A12
:406C8000A3EBC25310DB01FA02FC634400FA02FCC2F12002BCF1004F20FA02F243EB020008BF20F00100704702F1200201FA02FCC2F1200250EA4C0021FA02F243EB020068
:406CC00008BF20EADC7070474FF0FF0C1CEAD0521EBF1CEAD15392EA0C0F93EA0C0F6FD01A4480EA010C400218BF5FEA41211ED04FF0006343EA501043EA5111A0FB0131C7
:406D00000CF00040B1F5000F3EBF490041EAD3715B0040EA010062F17F02FD2A1DD8B3F1004F40EBC25008BF20F00100704790F0000F0CF0004C08BF49024CEA502040EABF
:406D400051207F3AC2BFD2F1FF0340EAC250704740F400004FF00003013A5DDC12F1190FDCBF00F000407047C2F10002410021FA02F1C2F1200200FA02FC5FEA310040F19D
:406D8000000053EA4C0308BF20EADC70704792F0000F00F0004C02BF400010F4000F013AF9D040EA0C0093F0000F01F0004C02BF490011F4000F013BF9D041EA0C018FE7B8
:406DC0000CEAD15392EA0C0F18BF93EA0C0F0AD030F0004C18BF31F0004CD8D180EA010000F00040704790F0000F17BF90F0004F084691F0000F91F0004F14D092EA0C0F91
:406E000001D142020FD193EA0C0F03D14B0218BF084608D180EA010000F0004040F0FE4040F40000704740F0FE4040F4400070474FF0FF0C1CEAD0521EBF1CEAD15392EA23
:406E40000C0F93EA0C0F69D0A2EB030280EA010C49024FEA402037D04FF0805343EA111143EA10130CF000408B4238BF5B0042F17D024FF4000C8B4224BF5B1A40EA0C00CA
:406E8000B3EB510F24BFA3EB510340EA5C00B3EB910F24BFA3EB910340EA9C00B3EBD10F24BFA3EBD10340EADC001B0118BF5FEA1C1CE0D1FD2A3FF650AF8B4240EBC2502D
:406EC00008BF20F0010070470CF0004C4CEA50207F32C2BFD2F1FF0340EAC250704740F400004FF00003013A37E792F0000F00F0004C02BF400010F4000F013AF9D040EA4D
:406F00000C0093F0000F01F0004C02BF490011F4000F013BF9D041EA0C0195E70CEAD15392EA0C0F08D142027FF47DAF93EA0C0F7FF470AF084676E793EA0C0F04D14B02A3
:406F40003FF44CAF08466EE730F0004C18BF31F0004CCAD130F000427FF45CAF31F000437FF43CAF5FE700BF42000ED2B2F1FE4F0BD34FF09E03B3EB126209D44FEA002333
:406F800043F0004323FA02F070474FF00000704712F1610F01D1420202D14FF0FF3070474FF00000704700BF014B1868704700BF8481FF1F0E4B70B51E460E4C0025E41AA5
:406FC000A410A54204D056F8253098470135F8E700F0A6FE084B094C1E46E41AA4100025A54204D056F8253098470135F8E770BD2C7D00002C7D00002C7D0000347D0000E9
:4070000003460244934202D003F8011BFAE770470CB430B5164B0C1E9DB01D6804DA8B232B604FF0FF301EE04FF40273ADF814300CBF234604F1FF33049307934FF6FF7302
:4070400002900690ADF81630209A21AB02A92846019300F0F9F8431CBCBF8B232B6014B1029B00221A701DB0BDE8304002B070478481FF1F2DE9F0470F4680463F48D0F8A3
:4070800000903D4615F8014B09EB0400407800F0080000F0FF0608B12F46F2E72D2C03D1BD1C7C78012603E02B2C04BF7C78BD1C13B1102B0AD15BE0302C57D1287800F0AC
:4070C000DF0058284DD16C7810230235002E14BF4FF0004C6FF0004CBCFBF3FA0027384603FB1ACC09EB040E9EF801E01EF0040F01D0303C0BE01EF0030E1BD0BEF1010FD2
:407100000CBF4FF0370E4FF0570ECEEB0404A34210DDB7F1FF3F0AD0504506D801D1644503DC03FB0040012701E04FF0FF3715F8014BD7E77B1C0CD1002E4FF0220314BF90
:407140004FF000406FF00040C8F800302AB9BDE8F08706B1404272B107B1691E1160BDE8F0873024002BB1D10823AFE70A23ADE7302CA3D0AAE7BDE8F08700BF2081FF1F5D
:4071800013460A46014602480068FFF773BF00BF8481FF1F2DE9F0478E6882469E420C46914698463ED88A8912F4906F3AD02568096902236F1A656905EB450595FBF3F5CC
:4071C0007B1C43449D4238BF1D4653050FD5294600F04AFB064698B13A46216900F0D2FAA38923F4906343F08003A38113E02A4600F098FB064670B92169504600F0E8FAA0
:407200000C23CAF80030A3894FF0FF3043F04003A381BDE8F08726613E44266046466561ED1BA560464528BF464649463246206800F0B3FAA36800209B1BA36023681E44F4
